:020000040800F2
:10000000600600206D0100087501000877010008F6
:10001000790100087B0100087D0100080000000054
:100020000000000000000000000000007F01000848
:10003000810100080000000083010008850100081C
:100040008701000887010008870100088701000870
:100050008701000887010008870100088701000860
:100060008701000887010008870100088701000850
:100070008701000887010008870100088701000840
:100080008701000887010008870100088701000830
:100090008701000887010008870100088701000820
:1000A0008701000887010008870100088701000810
:1000B0008701000887010008870100088701000800
:1000C00087010008870100088701000887010008F0
:1000D00087010008870100088701000887010008E0
:1000E00087010008870100088701000800F002F876
:1000F00000F02CF80AA090E8000C82448344AAF196
:100100000107DA4501D100F021F8AFF2090EBAE893
:100110000F0013F0010F18BFFB1A43F0010318473B
:10012000840300009403000000230024002500261F
:10013000103A28BF78C1FBD8520728BF30C148BF4A
:100140000B6070471FB51FBD10B510BD00F031F832
:100150001146FFF7F7FF00F05FF900F04FF803B426
:10016000FFF7F2FF03BC00F057F800000948804792
:1001700009480047FEE7FEE7FEE7FEE7FEE7FEE789
:10018000FEE7FEE7FEE7FEE704480549054A064BA1
:10019000704700009D030008ED000008600000208B
:1001A0006006002060020020600200207047704757
:1001B0007047754600F02CF8AE4605006946534678
:1001C00020F00700854618B020B5FFF7DDFFBDE839
:1001D00020404FF000064FF000074FF000084FF0AE
:1001E000000B21F00701AC46ACE8C009ACE8C0093F
:1001F000ACE8C009ACE8C0098D46704710B50446AC
:10020000AFF300802046BDE81040FFF7A8BF000014
:10021000004870470000002001491820ABBEFEE7EF
:1002200026000200704700001E48806940F01C0054
:100230001C4988611C48006820F00F001A490860BA
:100240000846006840F0020008601848006820F086
:10025000F000164908600846006840F02000086079
:100260001348406820F070601149486008464068B3
:1002700040F0007048600C480C30006840F001000D
:1002800009490C31086009480C30006840F0020050
:1002900006490C3108600648C06840F480400449B3
:1002A000C86070470010024000080140000C014087
:1002B0000010014010B500F001F810BD0CB5002091
:1002C000019000903348006840F480303149086064
:1002D00000BF3048006800F4003000900198401CD6
:1002E0000190009818B90198B0F5A06FF1D1294894
:1002F000006800F4003010B10120009001E00020FF
:1003000000900098012843D12348006840F0100075
:10031000214908600846006820F00300086008468C
:10032000006840F0020008601A48406819494860B7
:100330000846406848600846406840F4806048606D
:100340000846406820F47C1048600846406840F445
:10035000E81048600846006840F08070086000BF00
:100360000C48006800F000700028F9D00948406887
:1003700020F00300074948600846406840F002004A
:10038000486000BF0348406800F00C000828F9D11D
:100390000CBD0000001002400020024010B51348C0
:1003A000006840F0010011490860084640681049A3
:1003B00008400E494860084600680E4908400B494D
:1003C00008600846006820F48020086008464068FD
:1003D00020F4FE0048604FF41F008860FFF76AFFBA
:1003E0004FF000600449086010BD0000001002409A
:1003F0000000FFF8FFFFF6FE08ED00E0002007E038
:10040000002100E0491C42F6E0629142FAD3401C10
:10041000B0F5487FF4D37047FFF706FF3BE01E4876
:10042000006820F001001C4908601C48006840F08A
:1004300002001A4908601A48C06840F48040184910
:10044000C860FFF7DBFF1448006840F00100124964
:1004500008601248006820F0020010490860104847
:10046000C06840F480400E49C860FFF7C7FF0A48E3
:10047000006840F00100084908600848006840F042
:100480000200064908600648C06820F4804004491C
:10049000C860FFF7B3FFC2E70C0801400C0C014035
:1004A00000100140B40400080000002060060000B5
:0404B0002801000817
:04000005080000ED02
:00000001FF
